{
  "_format": "hh-sol-artifact-1",
  "contractName": "MyNFT",
  "sourceName": "contracts/NFT721.sol",
  "abi": [
    {
      "inputs": [],
      "stateMutability": "nonpayable",
      "type": "constructor"
    },
    {
      "anonymous": false,
      "inputs": [
        {
          "indexed": true,
          "internalType": "address",
          "name": "owner",
          "type": "address"
        },
        {
          "indexed": true,
          "internalType": "address",
          "name": "approved",
          "type": "address"
        },
        {
          "indexed": true,
          "internalType": "uint256",
          "name": "tokenId",
          "type": "uint256"
        }
      ],
      "name": "Approval",
      "type": "event"
    },
    {
      "anonymous": false,
      "inputs": [
        {
          "indexed": true,
          "internalType": "address",
          "name": "owner",
          "type": "address"
        },
        {
          "indexed": true,
          "internalType": "address",
          "name": "operator",
          "type": "address"
        },
        {
          "indexed": false,
          "internalType": "bool",
          "name": "approved",
          "type": "bool"
        }
      ],
      "name": "ApprovalForAll",
      "type": "event"
    },
    {
      "anonymous": false,
      "inputs": [
        {
          "indexed": false,
          "internalType": "uint256",
          "name": "_fromTokenId",
          "type": "uint256"
        },
        {
          "indexed": false,
          "internalType": "uint256",
          "name": "_toTokenId",
          "type": "uint256"
        }
      ],
      "name": "BatchMetadataUpdate",
      "type": "event"
    },
    {
      "anonymous": false,
      "inputs": [
        {
          "indexed": false,
          "internalType": "uint256",
          "name": "_tokenId",
          "type": "uint256"
        }
      ],
      "name": "MetadataUpdate",
      "type": "event"
    },
    {
      "anonymous": false,
      "inputs": [
        {
          "indexed": true,
          "internalType": "address",
          "name": "previousOwner",
          "type": "address"
        },
        {
          "indexed": true,
          "internalType": "address",
          "name": "newOwner",
          "type": "address"
        }
      ],
      "name": "OwnershipTransferred",
      "type": "event"
    },
    {
      "anonymous": false,
      "inputs": [
        {
          "indexed": false,
          "internalType": "uint256",
          "name": "tokenId",
          "type": "uint256"
        },
        {
          "indexed": false,
          "internalType": "string",
          "name": "newURI",
          "type": "string"
        }
      ],
      "name": "TokenURIUpdated",
      "type": "event"
    },
    {
      "anonymous": false,
      "inputs": [
        {
          "indexed": true,
          "internalType": "address",
          "name": "from",
          "type": "address"
        },
        {
          "indexed": true,
          "internalType": "address",
          "name": "to",
          "type": "address"
        },
        {
          "indexed": true,
          "internalType": "uint256",
          "name": "tokenId",
          "type": "uint256"
        }
      ],
      "name": "Transfer",
      "type": "event"
    },
    {
      "inputs": [
        {
          "internalType": "address",
          "name": "to",
          "type": "address"
        },
        {
          "internalType": "uint256",
          "name": "tokenId",
          "type": "uint256"
        }
      ],
      "name": "approve",
      "outputs": [],
      "stateMutability": "nonpayable",
      "type": "function"
    },
    {
      "inputs": [
        {
          "internalType": "address",
          "name": "owner",
          "type": "address"
        }
      ],
      "name": "balanceOf",
      "outputs": [
        {
          "internalType": "uint256",
          "name": "",
          "type": "uint256"
        }
      ],
      "stateMutability": "view",
      "type": "function"
    },
    {
      "inputs": [
        {
          "internalType": "uint256",
          "name": "tokenId",
          "type": "uint256"
        }
      ],
      "name": "burn",
      "outputs": [],
      "stateMutability": "nonpayable",
      "type": "function"
    },
    {
      "inputs": [
        {
          "internalType": "uint256",
          "name": "tokenId",
          "type": "uint256"
        }
      ],
      "name": "getApproved",
      "outputs": [
        {
          "internalType": "address",
          "name": "",
          "type": "address"
        }
      ],
      "stateMutability": "view",
      "type": "function"
    },
    {
      "inputs": [
        {
          "internalType": "address",
          "name": "owner",
          "type": "address"
        },
        {
          "internalType": "address",
          "name": "operator",
          "type": "address"
        }
      ],
      "name": "isApprovedForAll",
      "outputs": [
        {
          "internalType": "bool",
          "name": "",
          "type": "bool"
        }
      ],
      "stateMutability": "view",
      "type": "function"
    },
    {
      "inputs": [],
      "name": "marketplace",
      "outputs": [
        {
          "internalType": "address",
          "name": "",
          "type": "address"
        }
      ],
      "stateMutability": "view",
      "type": "function"
    },
    {
      "inputs": [],
      "name": "name",
      "outputs": [
        {
          "internalType": "string",
          "name": "",
          "type": "string"
        }
      ],
      "stateMutability": "view",
      "type": "function"
    },
    {
      "inputs": [],
      "name": "owner",
      "outputs": [
        {
          "internalType": "address",
          "name": "",
          "type": "address"
        }
      ],
      "stateMutability": "view",
      "type": "function"
    },
    {
      "inputs": [
        {
          "internalType": "uint256",
          "name": "tokenId",
          "type": "uint256"
        }
      ],
      "name": "ownerOf",
      "outputs": [
        {
          "internalType": "address",
          "name": "",
          "type": "address"
        }
      ],
      "stateMutability": "view",
      "type": "function"
    },
    {
      "inputs": [],
      "name": "renounceOwnership",
      "outputs": [],
      "stateMutability": "nonpayable",
      "type": "function"
    },
    {
      "inputs": [
        {
          "internalType": "address",
          "name": "to",
          "type": "address"
        },
        {
          "internalType": "uint256",
          "name": "tokenId",
          "type": "uint256"
        },
        {
          "internalType": "string",
          "name": "uri",
          "type": "string"
        }
      ],
      "name": "safeMint",
      "outputs": [],
      "stateMutability": "nonpayable",
      "type": "function"
    },
    {
      "inputs": [
        {
          "internalType": "address",
          "name": "from",
          "type": "address"
        },
        {
          "internalType": "address",
          "name": "to",
          "type": "address"
        },
        {
          "internalType": "uint256",
          "name": "tokenId",
          "type": "uint256"
        }
      ],
      "name": "safeTransferFrom",
      "outputs": [],
      "stateMutability": "nonpayable",
      "type": "function"
    },
    {
      "inputs": [
        {
          "internalType": "address",
          "name": "from",
          "type": "address"
        },
        {
          "internalType": "address",
          "name": "to",
          "type": "address"
        },
        {
          "internalType": "uint256",
          "name": "tokenId",
          "type": "uint256"
        },
        {
          "internalType": "bytes",
          "name": "data",
          "type": "bytes"
        }
      ],
      "name": "safeTransferFrom",
      "outputs": [],
      "stateMutability": "nonpayable",
      "type": "function"
    },
    {
      "inputs": [
        {
          "internalType": "address",
          "name": "operator",
          "type": "address"
        },
        {
          "internalType": "bool",
          "name": "approved",
          "type": "bool"
        }
      ],
      "name": "setApprovalForAll",
      "outputs": [],
      "stateMutability": "nonpayable",
      "type": "function"
    },
    {
      "inputs": [
        {
          "internalType": "address",
          "name": "_marketplace",
          "type": "address"
        }
      ],
      "name": "setMarketplace",
      "outputs": [],
      "stateMutability": "nonpayable",
      "type": "function"
    },
    {
      "inputs": [
        {
          "internalType": "bytes4",
          "name": "interfaceId",
          "type": "bytes4"
        }
      ],
      "name": "supportsInterface",
      "outputs": [
        {
          "internalType": "bool",
          "name": "",
          "type": "bool"
        }
      ],
      "stateMutability": "view",
      "type": "function"
    },
    {
      "inputs": [],
      "name": "symbol",
      "outputs": [
        {
          "internalType": "string",
          "name": "",
          "type": "string"
        }
      ],
      "stateMutability": "view",
      "type": "function"
    },
    {
      "inputs": [
        {
          "internalType": "uint256",
          "name": "index",
          "type": "uint256"
        }
      ],
      "name": "tokenByIndex",
      "outputs": [
        {
          "internalType": "uint256",
          "name": "",
          "type": "uint256"
        }
      ],
      "stateMutability": "view",
      "type": "function"
    },
    {
      "inputs": [
        {
          "internalType": "address",
          "name": "owner",
          "type": "address"
        },
        {
          "internalType": "uint256",
          "name": "index",
          "type": "uint256"
        }
      ],
      "name": "tokenOfOwnerByIndex",
      "outputs": [
        {
          "internalType": "uint256",
          "name": "",
          "type": "uint256"
        }
      ],
      "stateMutability": "view",
      "type": "function"
    },
    {
      "inputs": [
        {
          "internalType": "uint256",
          "name": "tokenId",
          "type": "uint256"
        }
      ],
      "name": "tokenURI",
      "outputs": [
        {
          "internalType": "string",
          "name": "",
          "type": "string"
        }
      ],
      "stateMutability": "view",
      "type": "function"
    },
    {
      "inputs": [],
      "name": "totalSupply",
      "outputs": [
        {
          "internalType": "uint256",
          "name": "",
          "type": "uint256"
        }
      ],
      "stateMutability": "view",
      "type": "function"
    },
    {
      "inputs": [
        {
          "internalType": "address",
          "name": "from",
          "type": "address"
        },
        {
          "internalType": "address",
          "name": "to",
          "type": "address"
        },
        {
          "internalType": "uint256",
          "name": "tokenId",
          "type": "uint256"
        }
      ],
      "name": "transferFrom",
      "outputs": [],
      "stateMutability": "nonpayable",
      "type": "function"
    },
    {
      "inputs": [
        {
          "internalType": "address",
          "name": "newOwner",
          "type": "address"
        }
      ],
      "name": "transferOwnership",
      "outputs": [],
      "stateMutability": "nonpayable",
      "type": "function"
    },
    {
      "inputs": [
        {
          "internalType": "uint256",
          "name": "tokenId",
          "type": "uint256"
        },
        {
          "internalType": "string",
          "name": "newURI",
          "type": "string"
        }
      ],
      "name": "updateTokenURI",
      "outputs": [],
      "stateMutability": "nonpayable",
      "type": "function"
    }
  ],
  "bytecode": "0x60806040523480156200001157600080fd5b50604051806040016040528060088152602001671c1a5bdb9953919560c21b815250604051806040016040528060048152602001631553919560e21b815250816000908162000061919062000190565b50600162000070828262000190565b5050506200008d620000876200009360201b60201c565b62000097565b6200025c565b3390565b600b80546001600160a01b038381166001600160a01b0319831681179093556040519116919082907f8be0079c531659141344cd1fd0a4f28419497f9722a3daafe3b4186f6b6457e090600090a35050565b634e487b7160e01b600052604160045260246000fd5b600181811c908216806200011457607f821691505b6020821081036200013557634e487b7160e01b600052602260045260246000fd5b50919050565b601f8211156200018b576000816000526020600020601f850160051c81016020861015620001665750805b601f850160051c820191505b81811015620001875782815560010162000172565b5050505b505050565b81516001600160401b03811115620001ac57620001ac620000e9565b620001c481620001bd8454620000ff565b846200013b565b602080601f831160018114620001fc5760008415620001e35750858301515b600019600386901b1c1916600185901b17855562000187565b600085815260208120601f198616915b828110156200022d578886015182559484019460019091019084016200020c565b50858210156200024c5787850151600019600388901b60f8161c191681555b5050505050600190811b01905550565b61208b806200026c6000396000f3fe608060405234801561001057600080fd5b50600436106101585760003560e01c806370a08231116100c3578063abc8c7af1161007c578063abc8c7af146102cb578063b88d4fde146102de578063c87b56dd146102f1578063cd279c7c14610304578063e985e9c514610317578063f2fde38b1461035357600080fd5b806370a0823114610271578063715018a61461028457806373ad6c2d1461028c5780638da5cb5b1461029f57806395d89b41146102b0578063a22cb465146102b857600080fd5b806323b872dd1161011557806323b872dd146101ff5780632f745c591461021257806342842e0e1461022557806342966c68146102385780634f6ccce71461024b5780636352211e1461025e57600080fd5b806301ffc9a71461015d57806306fdde0314610185578063081812fc1461019a578063095ea7b3146101c557806318160ddd146101da57806318e97fd1146101ec575b600080fd5b61017061016b3660046119cd565b610366565b60405190151581526020015b60405180910390f35b61018d610377565b60405161017c9190611a3a565b6101ad6101a8366004611a4d565b610409565b6040516001600160a01b03909116815260200161017c565b6101d86101d3366004611a82565b610430565b005b6009545b60405190815260200161017c565b6101d86101fa366004611b58565b61054a565b6101d861020d366004611b9f565b6105ea565b6101de610220366004611a82565b61061c565b6101d8610233366004611b9f565b6106b2565b6101d8610246366004611a4d565b6106cd565b6101de610259366004611a4d565b6106fe565b6101ad61026c366004611a4d565b610791565b6101de61027f366004611bdb565b6107f1565b6101d8610877565b6101d861029a366004611bdb565b61088b565b600b546001600160a01b03166101ad565b61018d6108b5565b6101d86102c6366004611bf6565b6108c4565b600c546101ad906001600160a01b031681565b6101d86102ec366004611c32565b6108d3565b61018d6102ff366004611a4d565b61090b565b6101d8610312366004611cae565b610916565b610170610325366004611d05565b6001600160a01b03918216600090815260056020908152604080832093909416825291909152205460ff1690565b6101d8610361366004611bdb565b6109ee565b600061037182610a64565b92915050565b60606000805461038690611d38565b80601f01602080910402602001604051908101604052809291908181526020018280546103b290611d38565b80156103ff5780601f106103d4576101008083540402835291602001916103ff565b820191906000526020600020905b8154815290600101906020018083116103e257829003601f168201915b5050505050905090565b600061041482610a89565b506000908152600460205260409020546001600160a01b031690565b600061043b82610791565b9050806001600160a01b0316836001600160a01b0316036104ad5760405162461bcd60e51b815260206004820152602160248201527f4552433732313a20617070726f76616c20746f2063757272656e74206f776e656044820152603960f91b60648201526084015b60405180910390fd5b336001600160a01b03821614806104c957506104c98133610325565b61053b5760405162461bcd60e51b815260206004820152603d60248201527f4552433732313a20617070726f76652063616c6c6572206973206e6f7420746f60448201527f6b656e206f776e6572206f7220617070726f76656420666f7220616c6c00000060648201526084016104a4565b6105458383610ae8565b505050565b610552610b56565b600d5482106105a35760405162461bcd60e51b815260206004820152601760248201527f546f6b656e20494420646f6573206e6f7420657869737400000000000000000060448201526064016104a4565b6105ad8282610bb0565b7f931f495b9a8e5d8e61946ea5d61e021f636cfe213a801f97589c18c152e408bd82826040516105de929190611d72565b60405180910390a15050565b6105f5335b82610c74565b6106115760405162461bcd60e51b81526004016104a490611d8b565b610545838383610cf3565b6000610627836107f1565b82106106895760405162461bcd60e51b815260206004820152602b60248201527f455243373231456e756d657261626c653a206f776e657220696e646578206f7560448201526a74206f6620626f756e647360a81b60648201526084016104a4565b506001600160a01b03919091166000908152600760209081526040808320938352929052205490565b610545838383604051806020016040528060008152506108d3565b6106d6336105ef565b6106f25760405162461bcd60e51b81526004016104a490611d8b565b6106fb81610e64565b50565b600061070960095490565b821061076c5760405162461bcd60e51b815260206004820152602c60248201527f455243373231456e756d657261626c653a20676c6f62616c20696e646578206f60448201526b7574206f6620626f756e647360a01b60648201526084016104a4565b6009828154811061077f5761077f611dd8565b90600052602060002001549050919050565b6000818152600260205260408120546001600160a01b0316806103715760405162461bcd60e51b8152602060048201526018602482015277115490cdcc8c4e881a5b9d985b1a59081d1bdad95b88125160421b60448201526064016104a4565b60006001600160a01b03821661085b5760405162461bcd60e51b815260206004820152602960248201527f4552433732313a2061646472657373207a65726f206973206e6f7420612076616044820152683634b21037bbb732b960b91b60648201526084016104a4565b506001600160a01b031660009081526003602052604090205490565b61087f610b56565b6108896000610e6d565b565b610893610b56565b600c80546001600160a01b0319166001600160a01b0392909216919091179055565b60606001805461038690611d38565b6108cf338383610ebf565b5050565b6108dd3383610c74565b6108f95760405162461bcd60e51b81526004016104a490611d8b565b61090584848484610f8d565b50505050565b606061037182610fc0565b600b546001600160a01b03163314806109395750600c546001600160a01b031633145b61097e5760405162461bcd60e51b8152602060048201526016602482015275139bdd08185d5d1a1bdc9a5e9959081d1bc81b5a5b9d60521b60448201526064016104a4565b6000828152600260205260409020546001600160a01b0316156109da5760405162461bcd60e51b8152602060048201526014602482015273546f6b656e20616c72656164792065786973747360601b60448201526064016104a4565b6109e483836110c8565b6105458282610bb0565b6109f6610b56565b6001600160a01b038116610a5b5760405162461bcd60e51b815260206004820152602660248201527f4f776e61626c653a206e6577206f776e657220697320746865207a65726f206160448201526564647265737360d01b60648201526084016104a4565b6106fb81610e6d565b60006001600160e01b0319821663780e9d6360e01b1480610371575061037182611261565b6000818152600260205260409020546001600160a01b03166106fb5760405162461bcd60e51b8152602060048201526018602482015277115490cdcc8c4e881a5b9d985b1a59081d1bdad95b88125160421b60448201526064016104a4565b600081815260046020526040902080546001600160a01b0319166001600160a01b0384169081179091558190610b1d82610791565b6001600160a01b03167f8c5be1e5ebec7d5bd14f71427d1e84f3dd0314c0f7b2291e5b200ac8c7c3b92560405160405180910390a45050565b600b546001600160a01b031633146108895760405162461bcd60e51b815260206004820181905260248201527f4f776e61626c653a2063616c6c6572206973206e6f7420746865206f776e657260448201526064016104a4565b6000828152600260205260409020546001600160a01b0316610c2b5760405162461bcd60e51b815260206004820152602e60248201527f45524337323155524953746f726167653a2055524920736574206f66206e6f6e60448201526d32bc34b9ba32b73a103a37b5b2b760911b60648201526084016104a4565b6000828152600660205260409020610c438282611e3e565b506040518281527ff8e1a15aba9398e019f0b49df1a4fde98ee17ae345cb5f6b5e2c27f5033e8ce7906020016105de565b600080610c8083610791565b9050806001600160a01b0316846001600160a01b03161480610cc757506001600160a01b0380821660009081526005602090815260408083209388168352929052205460ff165b80610ceb5750836001600160a01b0316610ce084610409565b6001600160a01b0316145b949350505050565b826001600160a01b0316610d0682610791565b6001600160a01b031614610d2c5760405162461bcd60e51b81526004016104a490611efe565b6001600160a01b038216610d8e5760405162461bcd60e51b8152602060048201526024808201527f4552433732313a207472616e7366657220746f20746865207a65726f206164646044820152637265737360e01b60648201526084016104a4565b610d9b8383836001611286565b826001600160a01b0316610dae82610791565b6001600160a01b031614610dd45760405162461bcd60e51b81526004016104a490611efe565b600081815260046020908152604080832080546001600160a01b03199081169091556001600160a01b0387811680865260038552838620805460001901905590871680865283862080546001019055868652600290945282852080549092168417909155905184937fddf252ad1be2c89b69c2b068fc378daa952ba7f163c4a11628f55a4df523b3ef91a4505050565b6106fb81611292565b600b80546001600160a01b038381166001600160a01b0319831681179093556040519116919082907f8be0079c531659141344cd1fd0a4f28419497f9722a3daafe3b4186f6b6457e090600090a35050565b816001600160a01b0316836001600160a01b031603610f205760405162461bcd60e51b815260206004820152601960248201527f4552433732313a20617070726f766520746f2063616c6c65720000000000000060448201526064016104a4565b6001600160a01b03838116600081815260056020908152604080832094871680845294825291829020805460ff191686151590811790915591519182527f17307eab39ab6107e8899845ad3d59bd9653f200f220920489ca2b5937696c31910160405180910390a3505050565b610f98848484610cf3565b610fa4848484846112d2565b6109055760405162461bcd60e51b81526004016104a490611f43565b6060610fcb82610a89565b60008281526006602052604081208054610fe490611d38565b80601f016020809104026020016040519081016040528092919081815260200182805461101090611d38565b801561105d5780601f106110325761010080835404028352916020019161105d565b820191906000526020600020905b81548152906001019060200180831161104057829003601f168201915b50505050509050600061107b60408051602081019091526000815290565b9050805160000361108d575092915050565b8151156110bf5780826040516020016110a7929190611f95565b60405160208183030381529060405292505050919050565b610ceb846113d3565b6001600160a01b03821661111e5760405162461bcd60e51b815260206004820181905260248201527f4552433732313a206d696e7420746f20746865207a65726f206164647265737360448201526064016104a4565b6000818152600260205260409020546001600160a01b0316156111835760405162461bcd60e51b815260206004820152601c60248201527f4552433732313a20746f6b656e20616c7265616479206d696e7465640000000060448201526064016104a4565b611191600083836001611286565b6000818152600260205260409020546001600160a01b0316156111f65760405162461bcd60e51b815260206004820152601c60248201527f4552433732313a20746f6b656e20616c7265616479206d696e7465640000000060448201526064016104a4565b6001600160a01b038216600081815260036020908152604080832080546001019055848352600290915280822080546001600160a01b0319168417905551839291907fddf252ad1be2c89b69c2b068fc378daa952ba7f163c4a11628f55a4df523b3ef908290a45050565b60006001600160e01b03198216632483248360e11b1480610371575061037182611447565b61090584848484611497565b61129b816115cb565b600081815260066020526040902080546112b490611d38565b1590506106fb5760008181526006602052604081206106fb91611969565b60006001600160a01b0384163b156113c857604051630a85bd0160e11b81526001600160a01b0385169063150b7a0290611316903390899088908890600401611fc4565b6020604051808303816000875af1925050508015611351575060408051601f3d908101601f1916820190925261134e91810190612001565b60015b6113ae573d80801561137f576040519150601f19603f3d011682016040523d82523d6000602084013e611384565b606091505b5080516000036113a65760405162461bcd60e51b81526004016104a490611f43565b805181602001fd5b6001600160e01b031916630a85bd0160e11b149050610ceb565b506001949350505050565b60606113de82610a89565b60006113f560408051602081019091526000815290565b905060008151116114155760405180602001604052806000815250611440565b8061141f8461166e565b604051602001611430929190611f95565b6040516020818303038152906040525b9392505050565b60006001600160e01b031982166380ac58cd60e01b148061147857506001600160e01b03198216635b5e139f60e01b145b8061037157506301ffc9a760e01b6001600160e01b0319831614610371565b60018111156115065760405162461bcd60e51b815260206004820152603560248201527f455243373231456e756d657261626c653a20636f6e7365637574697665207472604482015274185b9cd9995c9cc81b9bdd081cdd5c1c1bdc9d1959605a1b60648201526084016104a4565b816001600160a01b0385166115625761155d81600980546000838152600a60205260408120829055600182018355919091527f6e1540171b6c0c960b71a7020d9f60077f6af931a8bbf590da0223dacf75c7af0155565b611585565b836001600160a01b0316856001600160a01b031614611585576115858582611701565b6001600160a01b0384166115a15761159c8161179e565b6115c4565b846001600160a01b0316846001600160a01b0316146115c4576115c4848261184d565b5050505050565b60006115d682610791565b90506115e6816000846001611286565b6115ef82610791565b600083815260046020908152604080832080546001600160a01b03199081169091556001600160a01b0385168085526003845282852080546000190190558785526002909352818420805490911690555192935084927fddf252ad1be2c89b69c2b068fc378daa952ba7f163c4a11628f55a4df523b3ef908390a45050565b6060600061167b83611891565b600101905060008167ffffffffffffffff81111561169b5761169b611aac565b6040519080825280601f01601f1916602001820160405280156116c5576020820181803683370190505b5090508181016020015b600019016f181899199a1a9b1b9c1cb0b131b232b360811b600a86061a8153600a85049450846116cf57509392505050565b6000600161170e846107f1565b611718919061201e565b60008381526008602052604090205490915080821461176b576001600160a01b03841660009081526007602090815260408083208584528252808320548484528184208190558352600890915290208190555b5060009182526008602090815260408084208490556001600160a01b039094168352600781528383209183525290812055565b6009546000906117b09060019061201e565b6000838152600a6020526040812054600980549394509092849081106117d8576117d8611dd8565b9060005260206000200154905080600983815481106117f9576117f9611dd8565b6000918252602080832090910192909255828152600a909152604080822084905585825281205560098054806118315761183161203f565b6001900381819060005260206000200160009055905550505050565b6000611858836107f1565b6001600160a01b039093166000908152600760209081526040808320868452825280832085905593825260089052919091209190915550565b60008072184f03e93ff9f4daa797ed6e38ed64bf6a1f0160401b83106118d05772184f03e93ff9f4daa797ed6e38ed64bf6a1f0160401b830492506040015b6d04ee2d6d415b85acef810000000083106118fc576d04ee2d6d415b85acef8100000000830492506020015b662386f26fc10000831061191a57662386f26fc10000830492506010015b6305f5e1008310611932576305f5e100830492506008015b612710831061194657612710830492506004015b60648310611958576064830492506002015b600a83106103715760010192915050565b50805461197590611d38565b6000825580601f10611985575050565b601f0160209004906000526020600020908101906106fb91905b808211156119b3576000815560010161199f565b5090565b6001600160e01b0319811681146106fb57600080fd5b6000602082840312156119df57600080fd5b8135611440816119b7565b60005b83811015611a055781810151838201526020016119ed565b50506000910152565b60008151808452611a268160208601602086016119ea565b601f01601f19169290920160200192915050565b6020815260006114406020830184611a0e565b600060208284031215611a5f57600080fd5b5035919050565b80356001600160a01b0381168114611a7d57600080fd5b919050565b60008060408385031215611a9557600080fd5b611a9e83611a66565b946020939093013593505050565b634e487b7160e01b600052604160045260246000fd5b600067ffffffffffffffff80841115611add57611add611aac565b604051601f8501601f19908116603f01168101908282118183101715611b0557611b05611aac565b81604052809350858152868686011115611b1e57600080fd5b858560208301376000602087830101525050509392505050565b600082601f830112611b4957600080fd5b61144083833560208501611ac2565b60008060408385031215611b6b57600080fd5b82359150602083013567ffffffffffffffff811115611b8957600080fd5b611b9585828601611b38565b9150509250929050565b600080600060608486031215611bb457600080fd5b611bbd84611a66565b9250611bcb60208501611a66565b9150604084013590509250925092565b600060208284031215611bed57600080fd5b61144082611a66565b60008060408385031215611c0957600080fd5b611c1283611a66565b915060208301358015158114611c2757600080fd5b809150509250929050565b60008060008060808587031215611c4857600080fd5b611c5185611a66565b9350611c5f60208601611a66565b925060408501359150606085013567ffffffffffffffff811115611c8257600080fd5b8501601f81018713611c9357600080fd5b611ca287823560208401611ac2565b91505092959194509250565b600080600060608486031215611cc357600080fd5b611ccc84611a66565b925060208401359150604084013567ffffffffffffffff811115611cef57600080fd5b611cfb86828701611b38565b9150509250925092565b60008060408385031215611d1857600080fd5b611d2183611a66565b9150611d2f60208401611a66565b90509250929050565b600181811c90821680611d4c57607f821691505b602082108103611d6c57634e487b7160e01b600052602260045260246000fd5b50919050565b828152604060208201526000610ceb6040830184611a0e565b6020808252602d908201527f4552433732313a2063616c6c6572206973206e6f7420746f6b656e206f776e6560408201526c1c881bdc88185c1c1c9bdd9959609a1b606082015260800190565b634e487b7160e01b600052603260045260246000fd5b601f821115610545576000816000526020600020601f850160051c81016020861015611e175750805b601f850160051c820191505b81811015611e3657828155600101611e23565b505050505050565b815167ffffffffffffffff811115611e5857611e58611aac565b611e6c81611e668454611d38565b84611dee565b602080601f831160018114611ea15760008415611e895750858301515b600019600386901b1c1916600185901b178555611e36565b600085815260208120601f198616915b82811015611ed057888601518255948401946001909101908401611eb1565b5085821015611eee5787850151600019600388901b60f8161c191681555b5050505050600190811b01905550565b60208082526025908201527f4552433732313a207472616e736665722066726f6d20696e636f72726563742060408201526437bbb732b960d91b606082015260800190565b60208082526032908201527f4552433732313a207472616e7366657220746f206e6f6e20455243373231526560408201527131b2b4bb32b91034b6b83632b6b2b73a32b960711b606082015260800190565b60008351611fa78184602088016119ea565b835190830190611fbb8183602088016119ea565b01949350505050565b6001600160a01b0385811682528416602082015260408101839052608060608201819052600090611ff790830184611a0e565b9695505050505050565b60006020828403121561201357600080fd5b8151611440816119b7565b8181038181111561037157634e487b7160e01b600052601160045260246000fd5b634e487b7160e01b600052603160045260246000fdfea264697066735822122073a321b4f189932d1d909aab8c6bb61081f08c3225a2a0cc426deb01f60413c764736f6c63430008180033",
  "linkReferences": {},
  "deployedLinkReferences": {}
}