{
  "_format": "hh-sol-artifact-1",
  "contractName": "NFTAirdrop",
  "sourceName": "contracts/adropNFT.sol",
  "abi": [
    {
      "inputs": [
        {
          "internalType": "address",
          "name": "_nftContract",
          "type": "address"
        }
      ],
      "stateMutability": "nonpayable",
      "type": "constructor"
    },
    {
      "anonymous": false,
      "inputs": [
        {
          "indexed": true,
          "internalType": "address",
          "name": "user",
          "type": "address"
        },
        {
          "indexed": false,
          "internalType": "bool",
          "name": "isBlacklisted",
          "type": "bool"
        }
      ],
      "name": "BlacklistUpdated",
      "type": "event"
    },
    {
      "anonymous": false,
      "inputs": [
        {
          "indexed": true,
          "internalType": "address",
          "name": "user",
          "type": "address"
        },
        {
          "indexed": false,
          "internalType": "uint256",
          "name": "amount",
          "type": "uint256"
        },
        {
          "indexed": false,
          "internalType": "uint256",
          "name": "claimTime",
          "type": "uint256"
        },
        {
          "indexed": false,
          "internalType": "uint256",
          "name": "totalClaimed",
          "type": "uint256"
        },
        {
          "indexed": false,
          "internalType": "uint256",
          "name": "claimCount",
          "type": "uint256"
        }
      ],
      "name": "Claimed",
      "type": "event"
    },
    {
      "anonymous": false,
      "inputs": [
        {
          "indexed": false,
          "internalType": "bool",
          "name": "paused",
          "type": "bool"
        }
      ],
      "name": "ContractPaused",
      "type": "event"
    },
    {
      "anonymous": false,
      "inputs": [
        {
          "indexed": false,
          "internalType": "uint256",
          "name": "amount",
          "type": "uint256"
        }
      ],
      "name": "GlobalClaimableUpdated",
      "type": "event"
    },
    {
      "anonymous": false,
      "inputs": [
        {
          "indexed": false,
          "internalType": "uint256",
          "name": "newLockPeriod",
          "type": "uint256"
        }
      ],
      "name": "LockPeriodUpdated",
      "type": "event"
    },
    {
      "anonymous": false,
      "inputs": [
        {
          "indexed": true,
          "internalType": "address",
          "name": "user",
          "type": "address"
        },
        {
          "indexed": false,
          "internalType": "bool",
          "name": "claimable",
          "type": "bool"
        }
      ],
      "name": "NFTClaimableStatusUpdated",
      "type": "event"
    },
    {
      "anonymous": false,
      "inputs": [
        {
          "indexed": true,
          "internalType": "address",
          "name": "user",
          "type": "address"
        },
        {
          "indexed": false,
          "internalType": "uint256",
          "name": "tokenId",
          "type": "uint256"
        },
        {
          "indexed": false,
          "internalType": "uint256",
          "name": "claimTime",
          "type": "uint256"
        }
      ],
      "name": "NFTClaimed",
      "type": "event"
    },
    {
      "anonymous": false,
      "inputs": [
        {
          "indexed": true,
          "internalType": "address",
          "name": "user",
          "type": "address"
        },
        {
          "indexed": false,
          "internalType": "uint256",
          "name": "tokenId",
          "type": "uint256"
        },
        {
          "indexed": false,
          "internalType": "string",
          "name": "nftURI",
          "type": "string"
        },
        {
          "indexed": false,
          "internalType": "uint256",
          "name": "mintTime",
          "type": "uint256"
        }
      ],
      "name": "NFTRegistered",
      "type": "event"
    },
    {
      "anonymous": false,
      "inputs": [
        {
          "indexed": true,
          "internalType": "address",
          "name": "sender",
          "type": "address"
        },
        {
          "indexed": false,
          "internalType": "uint256",
          "name": "amount",
          "type": "uint256"
        }
      ],
      "name": "NativeCoinDeposited",
      "type": "event"
    },
    {
      "anonymous": false,
      "inputs": [
        {
          "indexed": true,
          "internalType": "address",
          "name": "receiver",
          "type": "address"
        },
        {
          "indexed": false,
          "internalType": "uint256",
          "name": "amount",
          "type": "uint256"
        }
      ],
      "name": "NativeCoinWithdrawn",
      "type": "event"
    },
    {
      "anonymous": false,
      "inputs": [
        {
          "indexed": true,
          "internalType": "address",
          "name": "previousOwner",
          "type": "address"
        },
        {
          "indexed": true,
          "internalType": "address",
          "name": "newOwner",
          "type": "address"
        }
      ],
      "name": "OwnershipTransferred",
      "type": "event"
    },
    {
      "anonymous": false,
      "inputs": [
        {
          "indexed": false,
          "internalType": "address",
          "name": "account",
          "type": "address"
        }
      ],
      "name": "Paused",
      "type": "event"
    },
    {
      "anonymous": false,
      "inputs": [
        {
          "indexed": false,
          "internalType": "address",
          "name": "account",
          "type": "address"
        }
      ],
      "name": "Unpaused",
      "type": "event"
    },
    {
      "anonymous": false,
      "inputs": [
        {
          "indexed": true,
          "internalType": "address",
          "name": "user",
          "type": "address"
        },
        {
          "indexed": false,
          "internalType": "bool",
          "name": "canClaimAnytime",
          "type": "bool"
        }
      ],
      "name": "UserClaimPermissionUpdated",
      "type": "event"
    },
    {
      "inputs": [],
      "name": "CLAIM_PERIOD",
      "outputs": [
        {
          "internalType": "uint256",
          "name": "",
          "type": "uint256"
        }
      ],
      "stateMutability": "view",
      "type": "function"
    },
    {
      "inputs": [
        {
          "internalType": "address[]",
          "name": "users",
          "type": "address[]"
        },
        {
          "internalType": "bool",
          "name": "_claimable",
          "type": "bool"
        }
      ],
      "name": "batchSetNFTClaimable",
      "outputs": [],
      "stateMutability": "nonpayable",
      "type": "function"
    },
    {
      "inputs": [
        {
          "internalType": "address[]",
          "name": "users",
          "type": "address[]"
        },
        {
          "internalType": "bool",
          "name": "canClaimAnytime",
          "type": "bool"
        }
      ],
      "name": "batchSetUserClaimPermission",
      "outputs": [],
      "stateMutability": "nonpayable",
      "type": "function"
    },
    {
      "inputs": [
        {
          "internalType": "address",
          "name": "",
          "type": "address"
        }
      ],
      "name": "blacklist",
      "outputs": [
        {
          "internalType": "bool",
          "name": "",
          "type": "bool"
        }
      ],
      "stateMutability": "view",
      "type": "function"
    },
    {
      "inputs": [],
      "name": "claimNFT",
      "outputs": [],
      "stateMutability": "nonpayable",
      "type": "function"
    },
    {
      "inputs": [],
      "name": "claimNativeCoin",
      "outputs": [],
      "stateMutability": "nonpayable",
      "type": "function"
    },
    {
      "inputs": [],
      "name": "depositNativeCoin",
      "outputs": [],
      "stateMutability": "payable",
      "type": "function"
    },
    {
      "inputs": [],
      "name": "getContractBalance",
      "outputs": [
        {
          "internalType": "uint256",
          "name": "",
          "type": "uint256"
        }
      ],
      "stateMutability": "view",
      "type": "function"
    },
    {
      "inputs": [
        {
          "internalType": "address",
          "name": "user",
          "type": "address"
        }
      ],
      "name": "getNFTInfo",
      "outputs": [
        {
          "internalType": "uint256",
          "name": "tokenId",
          "type": "uint256"
        },
        {
          "internalType": "string",
          "name": "nftURI",
          "type": "string"
        },
        {
          "internalType": "uint256",
          "name": "amountReward",
          "type": "uint256"
        },
        {
          "internalType": "bool",
          "name": "claimable",
          "type": "bool"
        },
        {
          "internalType": "uint256",
          "name": "mintTime",
          "type": "uint256"
        },
        {
          "internalType": "uint256",
          "name": "unlockTime",
          "type": "uint256"
        },
        {
          "internalType": "uint256",
          "name": "lastupdate",
          "type": "uint256"
        },
        {
          "internalType": "bool",
          "name": "claimed",
          "type": "bool"
        }
      ],
      "stateMutability": "view",
      "type": "function"
    },
    {
      "inputs": [
        {
          "internalType": "address",
          "name": "user",
          "type": "address"
        }
      ],
      "name": "getNextClaimTime",
      "outputs": [
        {
          "internalType": "uint256",
          "name": "",
          "type": "uint256"
        }
      ],
      "stateMutability": "view",
      "type": "function"
    },
    {
      "inputs": [
        {
          "internalType": "address",
          "name": "user",
          "type": "address"
        }
      ],
      "name": "getUnlockTime",
      "outputs": [
        {
          "internalType": "uint256",
          "name": "",
          "type": "uint256"
        }
      ],
      "stateMutability": "view",
      "type": "function"
    },
    {
      "inputs": [
        {
          "internalType": "address",
          "name": "user",
          "type": "address"
        }
      ],
      "name": "getUserClaimHistory",
      "outputs": [
        {
          "internalType": "uint256",
          "name": "firstClaim",
          "type": "uint256"
        },
        {
          "internalType": "uint256",
          "name": "lastClaim",
          "type": "uint256"
        },
        {
          "internalType": "uint256",
          "name": "totalClaimedAmount",
          "type": "uint256"
        },
        {
          "internalType": "uint256",
          "name": "claimCount",
          "type": "uint256"
        },
        {
          "internalType": "bool",
          "name": "canClaimAnytime",
          "type": "bool"
        }
      ],
      "stateMutability": "view",
      "type": "function"
    },
    {
      "inputs": [],
      "name": "globalClaimableAmount",
      "outputs": [
        {
          "internalType": "uint256",
          "name": "",
          "type": "uint256"
        }
      ],
      "stateMutability": "view",
      "type": "function"
    },
    {
      "inputs": [
        {
          "internalType": "address",
          "name": "",
          "type": "address"
        }
      ],
      "name": "lastClaimTime",
      "outputs": [
        {
          "internalType": "uint256",
          "name": "",
          "type": "uint256"
        }
      ],
      "stateMutability": "view",
      "type": "function"
    },
    {
      "inputs": [],
      "name": "lockPeriod",
      "outputs": [
        {
          "internalType": "uint256",
          "name": "",
          "type": "uint256"
        }
      ],
      "stateMutability": "view",
      "type": "function"
    },
    {
      "inputs": [],
      "name": "nftContract",
      "outputs": [
        {
          "internalType": "contract IMyNFT",
          "name": "",
          "type": "address"
        }
      ],
      "stateMutability": "view",
      "type": "function"
    },
    {
      "inputs": [],
      "name": "owner",
      "outputs": [
        {
          "internalType": "address",
          "name": "",
          "type": "address"
        }
      ],
      "stateMutability": "view",
      "type": "function"
    },
    {
      "inputs": [],
      "name": "pause",
      "outputs": [],
      "stateMutability": "nonpayable",
      "type": "function"
    },
    {
      "inputs": [],
      "name": "paused",
      "outputs": [
        {
          "internalType": "bool",
          "name": "",
          "type": "bool"
        }
      ],
      "stateMutability": "view",
      "type": "function"
    },
    {
      "inputs": [
        {
          "internalType": "address",
          "name": "user",
          "type": "address"
        },
        {
          "internalType": "uint256",
          "name": "tokenId",
          "type": "uint256"
        },
        {
          "internalType": "string",
          "name": "nftURI",
          "type": "string"
        }
      ],
      "name": "registerAndMintNFT",
      "outputs": [],
      "stateMutability": "nonpayable",
      "type": "function"
    },
    {
      "inputs": [],
      "name": "renounceOwnership",
      "outputs": [],
      "stateMutability": "nonpayable",
      "type": "function"
    },
    {
      "inputs": [
        {
          "internalType": "address",
          "name": "user",
          "type": "address"
        },
        {
          "internalType": "bool",
          "name": "status",
          "type": "bool"
        }
      ],
      "name": "setBlacklist",
      "outputs": [],
      "stateMutability": "nonpayable",
      "type": "function"
    },
    {
      "inputs": [
        {
          "internalType": "uint256",
          "name": "amountUssdt",
          "type": "uint256"
        }
      ],
      "name": "setClaimableAmount",
      "outputs": [],
      "stateMutability": "nonpayable",
      "type": "function"
    },
    {
      "inputs": [
        {
          "internalType": "uint256",
          "name": "_newLockPeriod",
          "type": "uint256"
        }
      ],
      "name": "setLockPeriod",
      "outputs": [],
      "stateMutability": "nonpayable",
      "type": "function"
    },
    {
      "inputs": [
        {
          "internalType": "address",
          "name": "user",
          "type": "address"
        },
        {
          "internalType": "bool",
          "name": "_claimable",
          "type": "bool"
        }
      ],
      "name": "setNFTClaimable",
      "outputs": [],
      "stateMutability": "nonpayable",
      "type": "function"
    },
    {
      "inputs": [
        {
          "internalType": "address",
          "name": "user",
          "type": "address"
        },
        {
          "internalType": "bool",
          "name": "canClaimAnytime",
          "type": "bool"
        }
      ],
      "name": "setUserClaimPermission",
      "outputs": [],
      "stateMutability": "nonpayable",
      "type": "function"
    },
    {
      "inputs": [],
      "name": "totalDistributedNFTs",
      "outputs": [
        {
          "internalType": "uint256",
          "name": "",
          "type": "uint256"
        }
      ],
      "stateMutability": "view",
      "type": "function"
    },
    {
      "inputs": [],
      "name": "totalNativeCoin",
      "outputs": [
        {
          "internalType": "uint256",
          "name": "",
          "type": "uint256"
        }
      ],
      "stateMutability": "view",
      "type": "function"
    },
    {
      "inputs": [],
      "name": "totalNativeCoinReceived",
      "outputs": [
        {
          "internalType": "uint256",
          "name": "",
          "type": "uint256"
        }
      ],
      "stateMutability": "view",
      "type": "function"
    },
    {
      "inputs": [
        {
          "internalType": "address",
          "name": "newOwner",
          "type": "address"
        }
      ],
      "name": "transferOwnership",
      "outputs": [],
      "stateMutability": "nonpayable",
      "type": "function"
    },
    {
      "inputs": [],
      "name": "unpause",
      "outputs": [],
      "stateMutability": "nonpayable",
      "type": "function"
    },
    {
      "inputs": [
        {
          "internalType": "address",
          "name": "",
          "type": "address"
        }
      ],
      "name": "userClaimHistory",
      "outputs": [
        {
          "internalType": "uint256",
          "name": "firstClaimTime",
          "type": "uint256"
        },
        {
          "internalType": "uint256",
          "name": "lastClaimTime",
          "type": "uint256"
        },
        {
          "internalType": "uint256",
          "name": "totalClaimedAmount",
          "type": "uint256"
        },
        {
          "internalType": "uint256",
          "name": "claimCount",
          "type": "uint256"
        },
        {
          "internalType": "bool",
          "name": "canClaimAnytime",
          "type": "bool"
        }
      ],
      "stateMutability": "view",
      "type": "function"
    },
    {
      "inputs": [
        {
          "internalType": "address",
          "name": "",
          "type": "address"
        }
      ],
      "name": "userNFTs",
      "outputs": [
        {
          "internalType": "uint256",
          "name": "tokenId",
          "type": "uint256"
        },
        {
          "internalType": "string",
          "name": "nftURI",
          "type": "string"
        },
        {
          "internalType": "uint256",
          "name": "amountReward",
          "type": "uint256"
        },
        {
          "internalType": "bool",
          "name": "claimable",
          "type": "bool"
        },
        {
          "internalType": "uint256",
          "name": "mintTime",
          "type": "uint256"
        },
        {
          "internalType": "uint256",
          "name": "unlockTime",
          "type": "uint256"
        },
        {
          "internalType": "uint256",
          "name": "lastupdate",
          "type": "uint256"
        },
        {
          "internalType": "bool",
          "name": "claimed",
          "type": "bool"
        }
      ],
      "stateMutability": "view",
      "type": "function"
    },
    {
      "inputs": [
        {
          "internalType": "address payable",
          "name": "recipient",
          "type": "address"
        },
        {
          "internalType": "uint256",
          "name": "amount",
          "type": "uint256"
        }
      ],
      "name": "withdrawNativeCoin",
      "outputs": [],
      "stateMutability": "nonpayable",
      "type": "function"
    },
    {
      "stateMutability": "payable",
      "type": "receive"
    }
  ],
  "bytecode": "0x60a06040526303c267006003553480156200001957600080fd5b50604051620022a6380380620022a68339810160408190526200003c9162000112565b6200004733620000c2565b600180556002805460ff191690556001600160a01b038116620000b05760405162461bcd60e51b815260206004820152601460248201527f496e76616c6964204e465420636f6e7472616374000000000000000000000000604482015260640160405180910390fd5b6001600160a01b031660805262000144565b600080546001600160a01b038381166001600160a01b0319831681178455604051919092169283917f8be0079c531659141344cd1fd0a4f28419497f9722a3daafe3b4186f6b6457e09190a35050565b6000602082840312156200012557600080fd5b81516001600160a01b03811681146200013d57600080fd5b9392505050565b608051612131620001756000396000818161067e01528181610af9015281816111b001526112ab01526121316000f3fe6080604052600436106101fd5760003560e01c8063715018a61161010d578063b77cf9c6116100a0578063dbed1e881161006f578063dbed1e88146106a0578063f2fde38b146106c0578063f9f92be4146106e0578063faf79bba14610710578063ff3cce0a1461073057600080fd5b8063b77cf9c6146105a1578063b90cf493146105ce578063d198ce6a1461064c578063d56d229d1461066c57600080fd5b80638456cb59116100dc5780638456cb59146105245780638da5cb5b1461053957806393c30c0f1461056b578063967c6e551461058b57600080fd5b8063715018a6146104c7578063779972da146104dc5780637c34de0b146104fc5780637ddabb231461051c57600080fd5b8063522bdaad116101905780635f54be4b1161015f5780635f54be4b146103f357806361f994cd14610408578063672756ad146104285780636ceb23a11461043d5780636f9fb98a146104b457600080fd5b8063522bdaad1461038357806354df144d146103995780635897c7ed146103b95780635c975abb146103cf57600080fd5b80633f4ba83a116101cc5780633f4ba83a146103225780633fd8b02f146103375780634eb962061461034d578063514e37a41461036357600080fd5b8063095c77831461027e578063153b0d1e146102bb57806321241dfe146102dd5780632205b0901461030257600080fd5b36610279576000341161022b5760405162461bcd60e51b815260040161022290611bd8565b60405180910390fd5b346005600082825461023d9190611c1d565b909155505060405134815233907ffcf4c7b827fffbcb0741916df270ffbbde858e16c7437dedb2ec09b642a8b6e09060200160405180910390a2005b600080fd5b34801561028a57600080fd5b5061029e610299366004611c53565b610750565b6040516102b2989796959493929190611cbd565b60405180910390f35b3480156102c757600080fd5b506102db6102d6366004611d21565b6108d0565b005b3480156102e957600080fd5b506102f462278d0081565b6040519081526020016102b2565b34801561030e57600080fd5b506102db61031d366004611d6c565b610938565b34801561032e57600080fd5b506102db610bae565b34801561034357600080fd5b506102f460035481565b34801561035957600080fd5b506102f460045481565b34801561036f57600080fd5b506102db61037e366004611e39565b610bf5565b34801561038f57600080fd5b506102f460075481565b3480156103a557600080fd5b506102db6103b4366004611ebd565b610cd8565b3480156103c557600080fd5b506102f460055481565b3480156103db57600080fd5b5060025460ff165b60405190151581526020016102b2565b3480156103ff57600080fd5b506102db610d4b565b34801561041457600080fd5b506102db610423366004611ed6565b610f53565b34801561043457600080fd5b506102db611034565b34801561044957600080fd5b5061048a610458366004611c53565b600960205260009081526040902080546001820154600283015460038401546004909401549293919290919060ff1685565b6040805195865260208601949094529284019190915260608301521515608082015260a0016102b2565b3480156104c057600080fd5b50476102f4565b3480156104d357600080fd5b506102db611364565b3480156104e857600080fd5b506102db6104f7366004611ebd565b611376565b34801561050857600080fd5b506102db610517366004611e39565b6113f9565b6102db6115d2565b34801561053057600080fd5b506102db611648565b34801561054557600080fd5b506000546001600160a01b03165b6040516001600160a01b0390911681526020016102b2565b34801561057757600080fd5b506102f4610586366004611c53565b611689565b34801561059757600080fd5b506102f460065481565b3480156105ad57600080fd5b506102f46105bc366004611c53565b600b6020526000908152604090205481565b3480156105da57600080fd5b5061048a6105e9366004611c53565b6001600160a01b0316600090815260096020908152604091829020825160a08101845281548082526001830154938201849052600283015494820185905260038301546060830181905260049093015460ff161515608090920182905294929392565b34801561065857600080fd5b5061029e610667366004611c53565b6116b6565b34801561067857600080fd5b506105537f000000000000000000000000000000000000000000000000000000000000000081565b3480156106ac57600080fd5b506102f46106bb366004611c53565b611787565b3480156106cc57600080fd5b506102db6106db366004611c53565b6117b1565b3480156106ec57600080fd5b506103e36106fb366004611c53565b600a6020526000908152604090205460ff1681565b34801561071c57600080fd5b506102db61072b366004611d21565b61182a565b34801561073c57600080fd5b506102db61074b366004611d21565b611959565b600060606000806000806000806000600860008b6001600160a01b03166001600160a01b0316815260200190815260200160002060405180610100016040529081600082015481526020016001820180546107aa90611f02565b80601f01602080910402602001604051908101604052809291908181526020018280546107d690611f02565b80156108235780601f106107f857610100808354040283529160200191610823565b820191906000526020600020905b81548152906001019060200180831161080657829003601f168201915b50505050508152602001600282015481526020016003820160009054906101000a900460ff161515151581526020016004820154815260200160058201548152602001600682015481526020016007820160009054906101000a900460ff1615151515815250509050806000015181602001518260400151836060015184608001518560a001518660c001518760e001519850985098509850985098509850985050919395975091939597565b6108d86119bc565b6001600160a01b0382166000818152600a6020908152604091829020805460ff191685151590811790915591519182527f6a12b3df6cba4203bd7fd06b816789f87de8c594299aed5717ae070fac781bac91015b60405180910390a25050565b6109406119bc565b610948611a16565b6001600160a01b0383166109905760405162461bcd60e51b815260206004820152600f60248201526e496e76616c6964206164647265737360881b6044820152606401610222565b6001600160a01b038316600090815260086020526040902060040154156109ee5760405162461bcd60e51b8152602060048201526012602482015271105b1c9958591e481c9959da5cdd195c995960721b6044820152606401610222565b6040518061010001604052808381526020018281526020016000815260200160001515815260200142815260200160035442610a2a9190611c1d565b815242602080830191909152600060409283018190526001600160a01b0387168152600882529190912082518155908201516001820190610a6b9082611f8d565b5060408201516002820155606082015160038201805491151560ff19928316179055608083015160048084019190915560a0840151600584015560c0840151600684015560e0909301516007909201805492151592909116919091179055805460019190600090610add908490611c1d565b9091555050604051633349e71f60e21b81526001600160a01b037f0000000000000000000000000000000000000000000000000000000000000000169063cd279c7c90610b329030908690869060040161204d565b600060405180830381600087803b158015610b4c57600080fd5b505af1158015610b60573d6000803e3d6000fd5b50505050826001600160a01b03167fbf60c5909de85f478a3d9a908784186968024df141d76f09816299a4b578083b838342604051610ba19392919061207d565b60405180910390a2505050565b610bb66119bc565b610bbe611a5c565b604051600081527f752d7e161ff5146f80e3820893176eb40532811e5e20400dfdde57455213706a906020015b60405180910390a1565b610bfd6119bc565b60005b82811015610cd2578160096000868685818110610c1f57610c1f6120a6565b9050602002016020810190610c349190611c53565b6001600160a01b031681526020810191909152604001600020600401805460ff1916911515919091179055838382818110610c7157610c716120a6565b9050602002016020810190610c869190611c53565b6001600160a01b03167f54935d22a9e4ef9e773e8850db02180505558b20c8bc95b572653a2179c3801083604051610cc2911515815260200190565b60405180910390a2600101610c00565b50505050565b610ce06119bc565b610cf9816ec097ce7bc90715b34b9f10000000006120bc565b6007557fa8d43370e40b9fd75dfcb25cdc147526edc4d2cf34c876ac8147a6205af2693d610d36826ec097ce7bc90715b34b9f10000000006120bc565b6040519081526020015b60405180910390a150565b610d53611aa9565b336000908152600960205260409020600481015460ff16610ddb57336000908152600b6020526040902054610d8c9062278d0090611c1d565b421015610ddb5760405162461bcd60e51b815260206004820152601760248201527f436c61696d206e6f7420617661696c61626c65207965740000000000000000006044820152606401610222565b600060075411610e235760405162461bcd60e51b8152602060048201526013602482015272139bc818db185a5b58589b1948185b5bdd5b9d606a1b6044820152606401610222565b600754471015610e6a5760405162461bcd60e51b8152602060048201526012602482015271496e73756666696369656e742066756e647360701b6044820152606401610222565b8054600003610e77574281555b426001820155600754600282018054600090610e94908490611c1d565b925050819055506001816003016000828254610eb09190611c1d565b9091555050336000818152600b6020526040808220429055600754905181156108fc0292818181858888f19350505050158015610ef1573d6000803e3d6000fd5b506007546002820154600383015460408051938452426020850152830191909152606082015233907f7708755c9b641bf197be5047b04002d2e88fa658c173a351067747eb5dfc568a906080015b60405180910390a250610f5160018055565b565b610f5b6119bc565b47811115610fab5760405162461bcd60e51b815260206004820152601d60248201527f496e73756666696369656e7420636f6e74726163742062616c616e63650000006044820152606401610222565b8060066000828254610fbd9190611c1d565b90915550506040516001600160a01b0383169082156108fc029083906000818181858888f19350505050158015610ff8573d6000803e3d6000fd5b50816001600160a01b03167fb81916d16fbd77affc3fcd0c70b5f93944f280e573527046d9ef770fea3bb2918260405161092c91815260200190565b61103c611aa9565b611044611a16565b336000908152600a602052604090205460ff16156110925760405162461bcd60e51b815260206004820152600b60248201526a109b1858dadb1a5cdd195960aa1b6044820152606401610222565b33600090815260086020526040812060048101549091036110e65760405162461bcd60e51b815260206004820152600e60248201526d139bdd081c9959da5cdd195c995960921b6044820152606401610222565b600781015460ff161561112d5760405162461bcd60e51b815260206004820152600f60248201526e105b1c9958591e4818db185a5b5959608a1b6044820152606401610222565b600381015460ff16806111515750600354816004015461114d9190611c1d565b4210155b61119d5760405162461bcd60e51b815260206004820152601e60248201527f4e6f7420636c61696d61626c6520616e64207374696c6c206c6f636b656400006044820152606401610222565b80546040516331a9108f60e11b815230917f00000000000000000000000000000000000000000000000000000000000000006001600160a01b031691636352211e916111ef9160040190815260200190565b602060405180830381865afa15801561120c573d6000803e3d6000fd5b505050506040513d601f19601f8201168201806040525081019061123091906120de565b6001600160a01b0316146112865760405162461bcd60e51b815260206004820152601a60248201527f4e4654206e6f74206c6f636b656420696e20636f6e74726163740000000000006044820152606401610222565b8054604051632142170760e11b815230600482015233602482015260448101919091527f00000000000000000000000000000000000000000000000000000000000000006001600160a01b0316906342842e0e90606401600060405180830381600087803b1580156112f757600080fd5b505af115801561130b573d6000803e3d6000fd5b50505060078201805460ff19166001179055504260068201819055815460405133927fd93bbb9e10b7af5aa4b410ac845ae87a717d305e8a4777959ad1dd06e6a1ac9892610f3f92909190918252602082015260400190565b61136c6119bc565b610f516000611b02565b61137e6119bc565b600081116113c45760405162461bcd60e51b8152602060048201526013602482015272125b9d985b1a59081b1bd8dac81c195c9a5bd9606a1b6044820152606401610222565b60038190556040518181527f8249ec545e68f6f1e1230133ca48c704d831a7f8e635ded80f3dd9e99b09bb2f90602001610d40565b6114016119bc565b60005b82811015610cd25760086000858584818110611422576114226120a6565b90506020020160208101906114379190611c53565b6001600160a01b03168152602081019190915260400160002060040154158015906114aa575060086000858584818110611473576114736120a6565b90506020020160208101906114889190611c53565b6001600160a01b0316815260208101919091526040016000206007015460ff16155b156115ca5781600860008686858181106114c6576114c66120a6565b90506020020160208101906114db9190611c53565b6001600160a01b03166001600160a01b0316815260200190815260200160002060030160006101000a81548160ff021916908315150217905550426008600086868581811061152c5761152c6120a6565b90506020020160208101906115419190611c53565b6001600160a01b03168152602081019190915260400160002060060155838382818110611570576115706120a6565b90506020020160208101906115859190611c53565b6001600160a01b03167f2b1ee5183e2b72de6516f57c09bb19255ef41955133cd5e53b7188249667aa9d836040516115c1911515815260200190565b60405180910390a25b600101611404565b6115da6119bc565b600034116115fa5760405162461bcd60e51b815260040161022290611bd8565b346005600082825461160c9190611c1d565b909155505060405134815233907ffcf4c7b827fffbcb0741916df270ffbbde858e16c7437dedb2ec09b642a8b6e09060200160405180910390a2565b6116506119bc565b611658611b52565b604051600181527f752d7e161ff5146f80e3820893176eb40532811e5e20400dfdde57455213706a90602001610beb565b6001600160a01b0381166000908152600b60205260408120546116b09062278d0090611c1d565b92915050565b600860205260009081526040902080546001820180549192916116d890611f02565b80601f016020809104026020016040519081016040528092919081815260200182805461170490611f02565b80156117515780601f1061172657610100808354040283529160200191611751565b820191906000526020600020905b81548152906001019060200180831161173457829003601f168201915b505050600284015460038501546004860154600587015460068801546007909801549697939660ff938416965091945092911688565b6003546001600160a01b03821660009081526008602052604081206004015490916116b091611c1d565b6117b96119bc565b6001600160a01b03811661181e5760405162461bcd60e51b815260206004820152602660248201527f4f776e61626c653a206e6577206f776e657220697320746865207a65726f206160448201526564647265737360d01b6064820152608401610222565b61182781611b02565b50565b6118326119bc565b6001600160a01b03821660009081526008602052604081206004015490036118925760405162461bcd60e51b8152602060048201526013602482015272155cd95c881b9bdd081c9959da5cdd195c9959606a1b6044820152606401610222565b6001600160a01b03821660009081526008602052604090206007015460ff16156118f45760405162461bcd60e51b815260206004820152601360248201527213919508185b1c9958591e4818db185a5b5959606a1b6044820152606401610222565b6001600160a01b0382166000818152600860205260409081902060038101805485151560ff1990911617905542600690910155517f2b1ee5183e2b72de6516f57c09bb19255ef41955133cd5e53b7188249667aa9d9061092c90841515815260200190565b6119616119bc565b6001600160a01b038216600081815260096020908152604091829020600401805460ff191685151590811790915591519182527f54935d22a9e4ef9e773e8850db02180505558b20c8bc95b572653a2179c38010910161092c565b6000546001600160a01b03163314610f515760405162461bcd60e51b815260206004820181905260248201527f4f776e61626c653a2063616c6c6572206973206e6f7420746865206f776e65726044820152606401610222565b60025460ff1615610f515760405162461bcd60e51b815260206004820152601060248201526f14185d5cd8589b194e881c185d5cd95960821b6044820152606401610222565b611a64611b8f565b6002805460ff191690557f5db9ee0a495bf2e6ff9c91a7834c1ba4fdd244a5e8aa4e537bd38aeae4b073aa335b6040516001600160a01b039091168152602001610beb565b600260015403611afb5760405162461bcd60e51b815260206004820152601f60248201527f5265656e7472616e637947756172643a207265656e7472616e742063616c6c006044820152606401610222565b6002600155565b600080546001600160a01b038381166001600160a01b0319831681178455604051919092169283917f8be0079c531659141344cd1fd0a4f28419497f9722a3daafe3b4186f6b6457e09190a35050565b611b5a611a16565b6002805460ff191660011790557f62e78cea01bee320cd4e420270b5ea74000d11b0c9f74754ebdbfc544b05a258611a913390565b60025460ff16610f515760405162461bcd60e51b815260206004820152601460248201527314185d5cd8589b194e881b9bdd081c185d5cd95960621b6044820152606401610222565b60208082526025908201527f4465706f73697420616d6f756e74206d75737420626520677265617465722074604082015264068616e20360dc1b606082015260800190565b808201808211156116b057634e487b7160e01b600052601160045260246000fd5b6001600160a01b038116811461182757600080fd5b600060208284031215611c6557600080fd5b8135611c7081611c3e565b9392505050565b6000815180845260005b81811015611c9d57602081850181015186830182015201611c81565b506000602082860101526020601f19601f83011685010191505092915050565b60006101008a8352806020840152611cd78184018b611c77565b604084019990995250509415156060860152608085019390935260a084019190915260c0830152151560e09091015292915050565b80358015158114611d1c57600080fd5b919050565b60008060408385031215611d3457600080fd5b8235611d3f81611c3e565b9150611d4d60208401611d0c565b90509250929050565b634e487b7160e01b600052604160045260246000fd5b600080600060608486031215611d8157600080fd5b8335611d8c81611c3e565b925060208401359150604084013567ffffffffffffffff80821115611db057600080fd5b818601915086601f830112611dc457600080fd5b813581811115611dd657611dd6611d56565b604051601f8201601f19908116603f01168101908382118183101715611dfe57611dfe611d56565b81604052828152896020848701011115611e1757600080fd5b8260208601602083013760006020848301015280955050505050509250925092565b600080600060408486031215611e4e57600080fd5b833567ffffffffffffffff80821115611e6657600080fd5b818601915086601f830112611e7a57600080fd5b813581811115611e8957600080fd5b8760208260051b8501011115611e9e57600080fd5b602092830195509350611eb49186019050611d0c565b90509250925092565b600060208284031215611ecf57600080fd5b5035919050565b60008060408385031215611ee957600080fd5b8235611ef481611c3e565b946020939093013593505050565b600181811c90821680611f1657607f821691505b602082108103611f3657634e487b7160e01b600052602260045260246000fd5b50919050565b601f821115611f88576000816000526020600020601f850160051c81016020861015611f655750805b601f850160051c820191505b81811015611f8457828155600101611f71565b5050505b505050565b815167ffffffffffffffff811115611fa757611fa7611d56565b611fbb81611fb58454611f02565b84611f3c565b602080601f831160018114611ff05760008415611fd85750858301515b600019600386901b1c1916600185901b178555611f84565b600085815260208120601f198616915b8281101561201f57888601518255948401946001909101908401612000565b508582101561203d5787850151600019600388901b60f8161c191681555b5050505050600190811b01905550565b60018060a01b03841681528260208201526060604082015260006120746060830184611c77565b95945050505050565b8381526060602082015260006120966060830185611c77565b9050826040830152949350505050565b634e487b7160e01b600052603260045260246000fd5b6000826120d957634e487b7160e01b600052601260045260246000fd5b500490565b6000602082840312156120f057600080fd5b8151611c7081611c3e56fea264697066735822122084744e22714bc9e5f1882f11c2bad221e7e87bd7c823d72de0a3ca1999de046464736f6c63430008180033",
  "linkReferences": {},
  "deployedLinkReferences": {}
}